S02000004C4150544F505F4348415247455F434F4E54524F4C4C45522E73726563C8
S11300000C945D000C9485000C9485000C94850080
S11300100C9485000C9485000C9485000C94850048
S11300200C9485000C9485000C9485000C94850038
S11300300C9485000C9485000C9485000C94850028
S11300400C9488060C9485000C94E3040C94150518
S11300500C9485000C9485000C9485000C94850008
S11300600C9485000C948500000000080002010037
S1130070000304070000000000000000010204085F
S113008010204080010204081020010204081020FE
S1130090040404040404040402020202020203032A
S11300A00303030300000000250028002B000000C8
S11300B00000240027002A00450511241FBECFEFAD
S11300C0D8E0DEBFCDBF12E0A0E0B1E0E6E2F0E1AF
S11300D002C005900D92A431B107D9F722E0A4E142
S11300E0B2E001C01D92AB3BB207E1F710E0CDE5F1
S11300F0D0E004C02197FE010E940B08CC35D10743
S1130100C9F70E9473050C9411080C94000081E156
S11301100E941007BC01990F880B990B0E94B00232
S113012028E539E34CE950E40E943C030E947F0235
S113013080E090E00E94AE0220E030E04AE754E420
S11301400E94060220E030E84DE354E40E943C03A0
S113015020E030EC4CEB54E40E94990120E030E0C4
S113016040E450E40E9406020E947802CB01089504
S11301708EE00E941007BC01990F880B990B0E9416
S1130180B00226EF38E24CE950E40E943C0320E040
S113019030E44CE155E40E9499010E947802CB01BD
S11301A008950E94B800BC01990F880B990B0E9416
S11301B0B00223EC35EF4CEA50E40E943C030E9469
S11301C07802CB0108950F931F93CF93DF93D82F19
S11301D0C0E000E010E0CD1731F00E94D100080F1C
S11301E0191FCF5FF8CF6C2F70E0C8010E94C107C0
S11301F0CB01DF91CF911F910F91089526E040E04C
S113020051EE60E070E085E192E00E947E0461E0DE
S113021071E085E192E00E94CC056AE271E085E13B
S113022092E00E94CC056DE571E085E192E00E94C8
S1130230CC056EE771E085E192E00E94CC0569EBA4
S113024071E085E192E00E94CC0561E083E00E94C8
S1130250560761E083E00E94920760E08EE00E940E
S1130260560760E08FE00E94560760E083E10E9439
S1130270560760E081E10E94560760E08EE00E942C
S1130280920760E081E10E94920781E00C940D07DF
S113029085E192E00E94A903892B61F185E192E056
S11302A00E94C30399278133910599F04CF4C097B8
S11302B0D9F460E083E00E94920761ED71E016C01A
S11302C08134910569F08234910571F4109214021D
S11302D011C061E083E00E9492076BED71E006C0FB
S11302E081E08093140206C064EE71E085E192E03F
S11302F00E94CC05809114028823D1F084E00E94EE
S1130300E3004AE050E0BC0185E192E00E946F0600
S113031069E085E192E00E94C1050E9487004AE0FD
S113032050E0BC0185E192E00E947606109214022E
S113033008955058BB27AA270E94B1010C940203C8
S11303400E94F40238F00E94FB0220F039F49F3F2F
S113035019F426F40C94F1020EF4E095E7FB0C94E6
S1130360EB02E92F0E94130358F3BA1762077307CD
S11303708407950720F079F4A6F50C9435030EF460
S1130380E0950B2EBA2FA02D0B01B90190010C01A1
S1130390CA01A0011124FF27591B99F0593F50F4B9
S11303A0503E68F11A16F040A22F232F342F442711
S11303B0585FF3CF469537952795A795F040539509
S11303C0C9F77EF41F16BA0B620B730B840BBAF0D9
S11303D09150A1F0FF0FBB1F661F771F881FC2F744
S11303E00EC0BA0F621F731F841F48F48795779558
S11303F06795B795F7959E3F08F0B0CF9395880F12
S113040008F09927EE0F9795879508950E941A0290
S11304100C9402030E94FB0258F00E94F40240F084
S113042029F45F3F29F00C94EB0251110C9436032C
S11304300C94F1020E94130368F39923B1F355233A
S113044091F3951B550BBB27AA27621773078407E3
S113045038F09F5F5F4F220F331F441FAA1FA9F379
S113046035D00E2E3AF0E0E832D091505040E69567
S1130470001CCAF72BD0FE2F29D0660F771F881FC8
S1130480BB1F261737074807AB07B0E809F0BB0BBB
S1130490802DBF01FF2793585F4F3AF09E3F5105CF
S11304A078F00C94EB020C9436035F3FE4F3983E2F
S11304B0D4F3869577956795B795F7959F5FC9F7B8
S11304C0880F911D9695879597F90895E1E0660F39
S11304D0771F881FBB1F621773078407BA0720F0B2
S11304E0621B730B840BBA0BEE1F88F7E09508951B
S11304F00E947F026894B1110C94360308950E94FF
S11305001B0388F09F5798F0B92F9927B751B0F083
S1130510E1F0660F771F881F991F1AF0BA95C9F783
S113052014C0B13091F00E943503B1E008950C94E9
S11305303503672F782F8827B85F39F0B93FCCF39C
S1130540869577956795B395D9F73EF49095809500
S1130550709561957F4F8F4F9F4F0895E89409C020
S113056097FB3EF490958095709561957F4F8F4FE2
S11305709F4F9923A9F0F92F96E9BB279395F695F8
S1130580879577956795B795F111F8CFFAF4BB0F76
S113059011F460FF1BC06F5F7F4F8F4F9F4F16C0DA
S11305A0882311F096E911C0772321F09EE8872F64
S11305B0762F05C0662371F096E8862F70E060E020
S11305C02AF09A95660F771F881FDAF7880F969599
S11305D0879597F9089597F99F6780E870E060E040
S11305E008959FEF80EC089500240A9416161706C8
S11305F018060906089500240A9412161306140610
S113060005060895092E0394000C11F4882352F072
S1130610BB0F40F4BF2B11F460FF04C06F5F7F4F2A
S11306208F4F9F4F089557FD9058440F551F59F011
S11306305F3F71F04795880F97FB991F61F09F3FCB
S113064079F087950895121613061406551FF2CFF4
S11306504695F1DF08C0161617061806991FF1CF44
S113066086957105610508940895E894BB2766276B
S11306707727CB0197F908950E944F030C94020346
S11306800E94F40238F00E94FB0220F0952311F03E
S11306900C94EB020C94F10211240C9436030E9486
S11306A0130370F3959FC1F3950F50E0551F629F9C
S11306B0F001729FBB27F00DB11D639FAA27F00DB7
S11306C0B11DAA1F649F6627B00DA11D661F829FDE
S11306D02227B00DA11D621F739FB00DA11D621FC3
S11306E0839FA00D611D221F749F3327A00D611DE0
S11306F0231F849F600D211D822F762F6A2F1124C2
S11307009F5750409AF0F1F088234AF0EE0FFF1FF4
S1130710BB1F661F771F881F91505040A9F79E3F4B
S1130720510580F00C94EB020C9436035F3FE4F324
S1130730983ED4F3869577956795B795F795E795A1
S11307409F5FC1F7FE2B880F911D9695879597F9AA
S11307500895FC01918D228D892F90E0805C9F4F3C
S1130760821B91098F7399270895FC01918D828DC5
S1130770981731F0828DE80FF11D858D90E0089572
S11307808FEF9FEF0895FC01918D828D981761F092
S1130790828DDF01A80FB11D5D968C91928D9F5FB4
S11307A09F73928F90E008958FEF9FEF0895FC015F
S11307B0538D448D252F30E0842F90E0821B930BC2
S11307C0541710F0CF960895019708958BE395E0A0
S11307D0892B49F080E090E0892B29F00E943B05A9
S11307E081110C9400000895FC01848DDF01A80F91
S11307F0B11DA35ABF4F2C91848D90E001968F7345
S11308009927848FA689B7892C93A089B1898C9163
S113081080648C93938D848D981306C00288F38929
S1130820E02D80818F7D80830895EF92FF920F9356
S11308301F93CF93DF93EC0181E0888F9B8D8C8D88
S1130840981305C0E889F989808185FD24C0F62EB6
S11308500B8D10E00F5F1F4F0F731127E02E8C8D4F
S1130860E8120CC00FB607FCFACFE889F989808139
S113087085FFF5CFCE010E94F403F1CF8B8DFE01ED
S1130880E80FF11DE35AFF4FF0820B8FEA89FB89D1
S11308908081806207C0EE89FF896083E889F989D5
S11308A080818064808381E090E0DF91CF911F910B
S11308B00F91FF90EF900895CF93DF93EC01888D13
S11308C08823C9F0EA89FB89808185FD05C0A88950
S11308D0B9898C9186FD0FC00FB607FCF5CF8081D6
S11308E085FFF2CFA889B9898C9185FFEDCFCE0120
S11308F00E94F403E7CFDF91CF910895CF92DF9266
S1130900EF92FF921F93CF93DF93EC016A017B0177
S1130910122FE889F98982E080834115514E6105DF
S11309207105B1F060E079E08DE390E0A7019601F4
S11309300E94D507DA01C9010197A109B109B69549
S1130940A795979587959C01211580E13807A8F014
S1130950E889F989108260E874E88EE190E0A701E3
S113096096010E94D507DA01C9010197A109B109CD
S1130970B695A795979587959C01EC85FD85308361
S1130980EE85FF852083188EEC89FD891083EA8922
S1130990FB89808180618083EA89FB89808188600A
S11309A08083EA89FB89808180688083EA89FB8966
S11309B080818F7D8083DF91CF911F91FF90EF9095
S11309C0DF90CF9008951F920F920FB60F921124CB
S11309D02F938F939F93EF93FF93E0912502F091D0
S11309E026028081E0912B02F0912C0282FD12C03C
S11309F0908180912E028F5F8F7320912F02821736
S1130A0051F0E0912E02F0E0EB5EFD4F958F809364
S1130A102E0201C08081FF91EF919F918F912F91C0
S1130A200F900FBE0F901F9018951F920F920FB644
S1130A300F9211242F933F934F935F936F937F9360
S1130A408F939F93AF93BF93EF93FF9385E192E0CE
S1130A500E94F403FF91EF91BF91AF919F918F9109
S1130A607F916F915F914F913F912F910F900FBEA6
S1130A700F901F90189585E192E00E94A90321E050
S1130A80892B09F420E0822F0895E5E1F2E0138236
S1130A90128288EE93E0A0E0B0E084839583A6837D
S1130AA0B78387EF91E09183808385EC90E095870D
S1130AB0848784EC90E09787868780EC90E0918B24
S1130AC0808B81EC90E0938B828B82EC90E0958B11
S1130AD0848B86EC90E0978B868B118E128E138E0E
S1130AE0148E089508950E94D2060E9472050E94F1
S1130AF0FE00C6EED3E00E9448012097E1F30E9475
S1130B00E603F9CFCF92DF92EF92FF920F931F93F8
S1130B10CF93DF936C017A018B01C0E0D0E0CE1556
S1130B20DF0581F0D8016D918D01D601ED91FC9125
S1130B300190F081E02DC6010995892B11F02196D1
S1130B40EECF7E01C701DF91CF911F910F91FF90EE
S1130B50EF90DF90CF9008956115710579F0FB0156
S1130B6001900020E9F73197AF01461B570BDC01D8
S1130B70ED91FC910280F381E02D099480E090E0F6
S1130B800895DC01ED91FC910190F081E02D099430
S1130B9065E072E00C94AC050F931F93CF93DF9341
S1130BA0EC010E94AC058C01CE010E94C805800FA7
S1130BB0911FDF91CF911F910F9108958F929F9272
S1130BC0AF92BF92EF92FF920F931F93CF93DF9355
S1130BD0CDB7DEB7A1970FB6F894DEBF0FBECDBF79
S1130BE07C01FA01CB0119A2223008F42AE08E011B
S1130BF00F5D1F4F822E912CA12CB12CBF01A5019A
S1130C0094010E94D507F901CA01015011096A3003
S1130C1010F4605D01C0695CD8016C93232B242B14
S1130C20252B61F7B801C7010E94AC05A1960FB648
S1130C30F894DEBF0FBECDBFDF91CF911F910F910E
S1130C40FF90EF90BF90AF909F908F900895CF92B8
S1130C50DF92EF92FF920F931F93CF93DF932115AF
S1130C60310581F4DC01ED91FC910190F081E02DDE
S1130C70642FDF91CF911F910F91FF90EF90DF9040
S1130C80CF9009942A30310501F577FF1DC06A0120
S1130C907B01EC016DE20E94C1058C0144275527BC
S1130CA0BA014C195D096E097F092AE0CE010E9440
S1130CB0DE05800F911FDF91CF911F910F91FF905F
S1130CC0EF90DF90CF9008952AE0DF91CF911F91AC
S1130CD00F91FF90EF90DF90CF900C94DE059A0176
S1130CE0AB01770F660B770B0C9427060F931F93BA
S1130CF0CF93DF93EC010E946F068C01CE010E941A
S1130D00C805800F911FDF91CF911F910F91089516
S1130D101F920F920FB60F9211242F933F938F932C
S1130D209F93AF93BF938091B3029091B402A0912B
S1130D30B502B091B6023091B20223E0230F2D37F1
S1130D4020F40196A11DB11D05C026E8230F0296CB
S1130D50A11DB11D2093B2028093B3029093B402FB
S1130D60A093B502B093B6028091B7029091B802F5
S1130D70A091B902B091BA020196A11DB11D809350
S1130D80B7029093B802A093B902B093BA02BF918C
S1130D90AF919F918F913F912F910F900FBE0F9024
S1130DA01F901895789484B5826084BD84B5816061
S1130DB084BD85B5826085BD85B5816085BDEEE65F
S1130DC0F0E0808181608083E1E8F0E0108280813E
S1130DD082608083808181608083E0E8F0E08081AC
S1130DE081608083E1EBF0E0808184608083E0EBCC
S1130DF0F0E0808181608083EAE7F0E080818460B4
S1130E00808380818260808380818160808380810F
S1130E10806880831092C100089580930001089532
S1130E208E3008F08E502091000190E4299F9001AB
S1130E3011248770822B80937C0080917A008064D7
S1130E4080937A0080917A0086FDFCCF80917800AF
S1130E502091790090E0922B0895833081F028F45A
S1130E60813099F08230A1F008958730A9F088305C
S1130E70B9F08430D1F4809180008F7D03C08091DB
S1130E8080008F7780938000089584B58F7702C0A7
S1130E9084B58F7D84BD08958091B0008F7703C0A1
S1130EA08091B0008F7D8093B0000895CF93DF933D
S1130EB090E0FC01E458FF4F2491FC01E057FF4F00
S1130EC08491882361F190E0880F991FFC01E25519
S1130ED0FF4FC591D491FC01EC55FF4FA591B491FE
S1130EE0611109C09FB7F894888120958223888373
S1130EF0EC912E230BC0623061F49FB7F894888183
S1130F00322F309583238883EC912E2B2C939FBF13
S1130F1006C08FB7F894E8812E2B28838FBFDF910A
S1130F20CF9108951F93CF93DF93282F30E0F901D9
S1130F30E859FF4F8491F901E458FF4FD491F90126
S1130F40E057FF4FC491CC23C1F0162F81110E94AA
S1130F502D07EC2FF0E0EE0FFF1FEC55FF4FA5918E
S1130F60B4919FB7F894111104C08C91D095D823F3
S1130F7002C0EC91DE2BDC939FBFDF91CF911F91D8
S1130F80089597FB072E16F4009407D077FD09D037
S1130F900E94F70707FC05D03EF4909581959F4F7A
S1130FA00895709561957F4F0895A1E21A2EAA1BAA
S1130FB0BB1BFD010DC0AA1FBB1FEE1FFF1FA21705
S1130FC0B307E407F50720F0A21BB30BE40BF50B02
S1130FD0661F771F881F991F1A9469F7609570958B
S1130FE0809590959B01AC01BD01CF010895AA1B8A
S1130FF0BB1B51E107C0AA1FBB1FA617B70710F000
S1131000A61BB70B881F991F5A95A9F78095909531
S1131010BC01CD010895EE0FFF1F0590F491E02D62
S10910200994F894FFCFCF
S1131026014C4150544F50204348415247455220A9
S1131036434F4E54524F4C4C4552202D2D20494E71
S1131046495449414C495A454400535550504C590A
S113105620434F4D45532046524F4D204E43204F7B
S1131066462052454C41592C2044454641554C5442
S113107620495320504F574552204F4E0053454E5A
S1131086443E0D0A313A20504F574552204F4E0DDB
S11310960A303A20504F574552204F464600534592
S11310A64E443E0D0A413A20454E41424C455F436B
S11310B6555252454E545F53545245414D0D0A42C2
S11310C63A2044495341424C455F43555252454E9A
S11310D6545F53545245414D00496E697469616CBD
S11310E6697A6174696F6E20436F6D706C6574659F
S11310F600504F5745525F4F464600504F57455292
S11311065F4F4E00554E4B4E4F574E5F4F5054490E
S11311164F4E000000000015048205D7035C04A9A5
S113112603C303B5030D0A006E616E00696E6600A3
S10711366F76660066
S9030000FC
